:020000040000FA
:0400000007EF00F016
:0A0008005D829BED1FF09CEF23F0DA
:100800000020202020202020202020202020202008
:10081000202020202000524547554C41544520546B
:10082000454D5045524154555245002020205553C6
:10083000455220494E5445524641434500312E48C9
:10084000656174657220616E642046616E00544576
:100850004D5028494E43293A25332E3166005445E0
:100860004D50284E454F293A25332E31660070658C
:10087000736F284B67293A25312E326600332E4F8D
:1008800032204C6576656C00322E48756D6964695E
:1008900074790068756D3A25332E3066006F706389
:1008A000696F6E3A2000312E564F4C564552003239
:1008B0002E564F4C56455200332E564F4C564552ED
:1008C00000494E46004E414E00696E66006E616EF4
:1008D000006C660025690000000E0001876F000EA5
:1008E000866F62C098F063C099F064C09AF065C0EA
:1008F0009BF09BBF80EF04F07EEF04F096EF04F0D6
:10090000000E876F010E866F98C002F099C003F049
:100910009AC004F09BC005F04CEC25F002C098F0A2
:1009200003C099F004C09AF005C09BF0000E0001CE
:100930009F6F000E9E6FF0C08BF0F1C08CF086515F
:100940008711D8A4A6EF04F0A8EF04F0AFEF04F0ED
:10095000F4A5ADEF04F0AFEF04F0C9EF04F0865159
:100960008711D8A4B6EF04F0B8EF04F0BEEF04F09E
:10097000000E716F2B0E706FC2EF04F0000E716FDE
:100980002D0E706F70C008F19E4B9F2B8B07D8A067
:100990008C0798C002F099C003F09AC004F09BC085
:1009A00005F01CEC1FF002040310D8A4DAEF04F0E9
:1009B000DCEF04F033EF05F0BF0E0001676FFF0EB0
:1009C000686F6651696F6A6B6751692768516A235E
:1009D0006A510AE11A0E695DD8A0F1EF04F0F4EF54
:1009E00004F0010EF5EF04F0000E726F736B72519C
:1009F0007311D8B4FEEF04F000EF05F00EEF05F030
:100A0000080E9E25026E010E9F21036EC10E046E1C
:100A1000080E056EFCEC23F01AEF05F0080E9E257B
:100A2000026E010E9F21036EC90E046E080E056E44
:100A3000FCEC23F00001FD0E8B27FF0E8C2360C021
:100A400012F061C013F0080E146E010E156E8BC00B
:100A500016F08CC017F0D8EC20F012C060F013C074
:100A600061F043EF0AF098C002F099C003F09AC019
:100A700004F09BC005F01CEC1FF002500310D8A43A
:100A800044EF05F046EF05F086EF05F0BF0E0001DC
:100A9000676FFF0E686F6651696F6A6B67516927F0
:100AA00068516A236A510AE11A0E695DD8A05BEFAA
:100AB00005F05EEF05F0010E5FEF05F0000E746FBC
:100AC000756B74517511D8B468EF05F06AEF05F0D5
:100AD00078EF05F0080E9E25026E010E9F21036E31
:100AE000C50E046E080E056EFCEC23F01AEF05F03F
:100AF000080E9E25026E010E9F21036ECD0E046E20
:100B0000080E056EFCEC23F01AEF05F0000E000154
:100B1000A06F000EA16F800EA26F3F0EA36F000E9C
:100B20009D6F000E9C6F98C002F099C003F09AC0B0
:100B300004F09BC005F0000E066E000E076E000E5E
:100B4000086E000E096E4BEC22F0D8B0AAEF05F04B
:100B5000ACEF05F02FEF06F0CBEF05F0A0C010F0E2
:100B6000A1C011F0A2C012F0A3C013F0000E146EC9
:100B7000000E156E200E166E410E176E7EEC13F0F1
:100B800010C0A0F011C0A1F012C0A2F013C0A3F0D9
:100B900000019C4B9D2B98C029F099C02AF09AC067
:100BA0002BF09BC02CF0000E146E000E156E200E64
:100BB000166E410E176EA0C010F0A1C011F0A2C0B9
:100BC00012F0A3C013F07EEC13F010C02DF011C092
:100BD0002EF012C02FF013C030F09AEC1EF0D8B0F7
:100BE000F4EF05F0F6EF05F0AEEF05F016EF06F0C6
:100BF000A0C029F0A1C02AF0A2C02BF0A3C02CF005
:100C0000000E2D6E000E2E6E200E2F6E410E306ED9
:100C100093EC15F029C0A0F02AC0A1F02BC0A2F0DF
:100C20002CC0A3F000019C07D8A09D0798C029F014
:100C300099C02AF09AC02BF09BC02CF0A0C02DF0D8
:100C4000A1C02EF0A2C02FF0A3C030F09AEC1EF08D
:100C5000D8A02DEF06F02FEF06F0F8EF05F066C0F4
:100C600008F0096ACCEC23F0085000018D6F8DC0AC
:100C70008AF0670E8D19D8A440EF06F042EF06F017
:100C800068EF06F0F251F311D8A449EF06F04BEFEC
:100C900006F04FEF06F0000EF36F010EF26FF3BF98
:100CA0005CEF06F0F35106E1F205D8B05AEF06F01A
:100CB0005CEF06F062EF06F0000E896F060E886F9B
:100CC00071EF06F0F2C088F0F3C089F071EF06F022
:100CD000F3BF6DEF06F06FEF06F05CEF06F062EF2A
:100CE00006F0670E8D19D8A478EF06F07AEF06F0BB
:100CF000A9EF06F09DAF88EF06F0FC0E9C5DFF0E9D
:100D00009D59D8A086EF06F088EF06F0A7EF06F011
:100D1000FF0E676FFF0E686F88C069F089C06AF0C8
:100D20006751692768516A239C51695D6A51800A3D
:100D30006B6F9D51800A6B59D8A0A1EF06F0A3EF0D
:100D400006F0A7EF06F0660E8A6FA9EF06F0650EB3
:100D50008A6F88C080F089C081F0670E8D19D8A491
:100D6000B4EF06F0B6EF06F0C6EF06F0660E8A198D
:100D7000D8A4BDEF06F0BFEF06F0C8EF06F09DBFA8
:100D8000C6EF06F0C4EF06F0C8EF06F0804B812BEB
:100D9000660E8A19D8A4CFEF06F0D1EF06F0F1EF76
:100DA00006F09DBFD8EF06F0D6EF06F0E4EF06F0B0
:100DB000000EA06F000EA16F800EA26F3F0EA36FFA
:100DC000000E9D6F000E9C6F670E8D19D8B4EBEF6F
:100DD00006F0EDEF06F0F1EF06F09C5180279D51F3
:100DE0008123000E976F000E966F98C08EF099C009
:100DF0008FF09AC090F09BC091F0A0C06CF0A1C0A1
:100E00006DF0A2C06EF0A3C06FF082EF07F08EC04D
:100E100029F08FC02AF090C02BF091C02CF0A0C018
:100E20002DF0A1C02EF0A2C02FF0A3C030F093ECA3
:100E300015F029C042F02AC043F02BC044F02CC06A
:100E400045F0D2EC18F042C092F043C093F044C099
:100E500094F045C095F092C052F093C053F094C006
:100E600054F095C055F017EC1EF052C084F053C0FA
:100E700085F08EC052F08FC053F090C054F091C0F6
:100E800055F0A0C014F0A1C015F0A2C016F0A3C088
:100E900017F092C010F093C011F094C012F095C0FA
:100EA00013F07EEC13F010C056F011C057F012C0D2
:100EB00058F013C059F0A8EC24F052C08EF053C083
:100EC0008FF054C090F055C091F0A0C029F0A1C09F
:100ED0002AF0A2C02BF0A3C02CF0000E2D6E000E45
:100EE0002E6E200E2F6E410E306E93EC15F029C041
:100EF000A0F02AC0A1F02BC0A2F02CC0A3F00001EA
:100F0000964B972B8051965D9751800A676F815160
:100F1000800A6759D8A08FEF07F091EF07F007EF2D
:100F200007F0A0C010F0A1C011F0A2C012F0A3C041
:100F300013F0000E146E000E156EA00E166E400E0D
:100F4000176E7EEC13F010C092F011C093F012C037
:100F500094F013C095F08EC029F08FC02AF090C095
:100F60002BF091C02CF092C02DF093C02EF094C0C5
:100F70002FF095C030F09AEC1EF0D8B0C2EF07F019
:100F8000C4EF07F0CFEF07F0000E0001926F000EE4
:100F9000936F000E946F000E956FF8EF07F08EC000
:100FA00002F08FC003F090C004F091C005F092C031
:100FB00006F093C007F094C008F095C009F04BEC20
:100FC00022F0D8A0E6EF07F0E8EF07F0F8EF07F01F
:100FD000000184B1EEEF07F0F0EF07F0F8EF07F053
:100FE000000E926F000E936F000E946F000E956FBF
:100FF00098C042F099C043F09AC044F09BC045F0BD
:1010000092C046F093C047F094C048F095C049F0B4
:101010001EEC11F042C08EF043C08FF044C090F03F
:1010200045C091F06CC0A0F06DC0A1F06EC0A2F000
:101030006FC0A3F0650E00018A19D8B422EF08F042
:1010400024EF08F02AEF08F09CC082F09DC083F0E6
:101050002EEF08F0000E836F000E826F000E7F6F80
:10106000000E7E6F000E7D6F000E7C6F000E976F7E
:10107000000E966F29EF09F08EC029F08FC02AF07C
:1010800090C02BF091C02CF0A0C02DF0A1C02EF08C
:10109000A2C02FF0A3C030F093EC15F029C042F0AD
:1010A0002AC043F02BC044F02CC045F0D2EC18F01D
:1010B00042C092F043C093F044C094F045C095F014
:1010C00092C052F093C053F094C054F095C055F0C4
:1010D00017EC1EF052C084F053C085F00001F4B943
:1010E00074EF08F076EF08F093EF08F08451851163
:1010F000D8A47DEF08F07FEF08F093EF08F0670EBB
:101100008D19D8A486EF08F088EF08F093EF08F067
:1011100083BF8FEF08F08DEF08F093EF08F07C4B62
:101120007D2BDDEF08F07E517F11D8A49AEF08F0F7
:101130009CEF08F0C6EF08F083BFA3EF08F0A1EF23
:1011400008F0C6EF08F0080E9E25D96E010E9F210B
:10115000DA6E2E0EDF6E9E4B9F2B8B07D8A08C076E
:10116000000E7F6F010E7E6FC6EF08F0080E9E2501
:10117000D96E010E9F21DA6E300EDF6E9E4B9F2BD3
:101180008B07D8A08C077C07D8A07D077C517D11E8
:10119000D8A4CDEF08F0CFEF08F0B6EF08F0080EB6
:1011A0009E25D96E010E9F21DA6E8451300FDF6EBD
:1011B0009E4B9F2B8B07D8A08C078EC052F08FC000
:1011C00053F090C054F091C055F0A0C014F0A1C0ED
:1011D00015F0A2C016F0A3C017F092C010F093C093
:1011E00011F094C012F095C013F07EEC13F010C013
:1011F00056F011C057F012C058F013C059F0A8ECC7
:1012000024F052C08EF053C08FF054C090F055C0FF
:1012100091F0A0C029F0A1C02AF0A2C02BF0A3C079
:101220002CF0000E2D6E000E2E6E200E2F6E410E35
:10123000306E93EC15F029C0A0F02AC0A1F02BC0AD
:10124000A2F02CC0A3F000018207D8A08307964B20
:10125000972B8051965D9751800A676F8151800A64
:101260006759D8B036EF09F038EF09F046EF09F0CA
:101270009FBF44EF09F09F5109E14B0E9E5DD8A03E
:1012800044EF09F046EF09F03CEF08F07E517F1182
:10129000D8A44DEF09F04FEF09F060EF09F0F4A981
:1012A00054EF09F056EF09F060EF09F0080E9E25A3
:1012B000D96E010E9F21DA6E2E0EDF6E9E4B9F2B94
:1012C000080E9E25D96E010E9F21DA6E000EDF6E8C
:1012D000650E8A19D8A46FEF09F071EF09F01FEFBE
:1012E00005F0000E976F4F0E966F080E9625D96E7B
:1012F000010E9721DA6E000EDF6E000E876F000E72
:10130000866F9DBF88EF09F086EF09F090EF09F036
:10131000000E876F010E866F9C6D9D1FD8B09D2BB0
:10132000000E896F020E886FC1EF09F09607D8A0F2
:101330009707080E9625D96E010E9721DA6E9CC08C
:1013400002F09DC003F0000E056E0A0E046E9DECC7
:1013500021F00250300FDF6E9CC002F09DC003F000
:10136000000E056E0A0E046E3BEC21F002C09CF0EC
:1013700003C09DF000018807D8A089078B07D8A07B
:101380008C079C519D11D8A4C8EF09F0CAEF09F051
:1013900096EF09F089BFD7EF09F0895106E188057A
:1013A000D8B0D5EF09F0D7EF09F096EF09F096071E
:1013B000D8A0970786518711D8A4E1EF09F0E3EF91
:1013C00009F0E9EF09F0000E776F2B0E766FEDEF65
:1013D00009F0000E776F2D0E766F080E9625D96EE8
:1013E000010E9721DA6E76C0DFFF8B07D8A08C073D
:1013F0009607D8A09707BF0E676FFF0E686F6651FC
:10140000696F6A6B6751692768516A236A510AE1FB
:101410001A0E695DD8A00FEF0AF012EF0AF0010E64
:1014200013EF0AF0000E7A6F7B6B7A517B11D8A410
:101430001CEF0AF01EEF0AF024EF0AF0000E796F9D
:10144000650E786F28EF0AF0000E796F450E786F01
:10145000080E9625D96E010E9721DA6E78C0DFFF4F
:101460008B07D8A08C07080E9E25026E010E9F21C7
:10147000036E080E9625046E010E9721056EFCEC96
:1014800023F01FEF05F01200010E07EC26F0010E0D
:101490000A6E2B0E0B6E080E0C6E010E35EC23F04F
:1014A000010E0A6E3D0E0B6E080E0C6E020E35EC30
:1014B00023F0010E0A6E880E0B6E080E0C6E030EE2
:1014C00035EC23F0010E0A6E7D0E0B6E080E0C6ECD
:1014D000040E35EC23F00D0E0A6E9D0E0B6E080EF9
:1014E0000C6E040E35EC23F06C0E0001CC6F010E77
:1014F000CD6FD40ECE6F080ECF6FFEC0D0F0FFC000
:10150000D1F056EC24F0140E0A6E6C0E0B6E010E28
:101510000C6E040E35EC23F082A291EF0AF093EFEB
:101520000AF0AFEF0AF00001FE4BFF2BFFBFA2EF66
:101530000AF0FF5109E1040EFE5DD8A0A2EF0AF007
:10154000A4EF0AF0A8EF0AF0000EFF6F010EFE6F85
:1015500082B2ADEF0AF0AFEF0AF0A8EF0AF06C0E1E
:101560000001CC6F010ECD6FD40ECE6F080ECF6F81
:10157000FEC0D0F0FFC0D1F056EC24F0140E0A6E7D
:101580006C0E0B6E010E0C6E040E35EC23F082A077
:10159000CCEF0AF0CEEF0AF08CEF0AF0E8EF0DF096
:1015A000010E07EC26F0010E0A6E160E0B6E080EE9
:1015B0000C6E010E35EC23F0010E0A6EA60E0B6EBA
:1015C000080E0C6E040E35EC23F00D0E0A6E9D0E07
:1015D0000B6E080E0C6E040E35EC23F06C0E000141
:1015E000CC6F010ECD6FD40ECE6F080ECF6FFEC044
:1015F000D0F0FFC0D1F056EC24F0140E0A6E6C0E41
:101600000B6E010E0C6E040E35EC23F0000ECBECCD
:1016100024F002C0FAF003C0FBF0FAC002F0FBC0F5
:1016200003F0000E03BEFF0E046E056E010EDBEC30
:1016300019F002C010F003C011F004C012F005C090
:1016400013F0E30E146E360E156EFA0E166E3E0E85
:10165000176E7EEC13F010C0E6F011C0E7F012C078
:10166000E8F013C0E9F0580E0001CC6F010ECD6F09
:101670004E0ECE6F080ECF6FE6C0D0F0E7C0D1F0AF
:10168000E8C0D2F0E9C0D3F056EC24F0010E0A6EA7
:10169000580E0B6E010E0C6E020E35EC23F0010E8F
:1016A000CBEC24F002C0F8F003C0F9F0F8C002F06F
:1016B000F9C003F0000E03BEFF0E046E056E010EAE
:1016C000DBEC19F002C010F003C011F004C012F0FE
:1016D00005C013F0520E146E270E156E200E166EF6
:1016E0003D0E176E7EEC13F010C0E2F011C0E3F077
:1016F00012C0E4F013C0E5F0580E0001CC6F010EEB
:10170000CD6F5E0ECE6F080ECF6FE2C0D0F0E3C09B
:10171000D1F0E4C0D2F0E5C0D3F056EC24F0010ED5
:101720000A6E580E0B6E010E0C6E030E35EC23F094
:10173000E6C029F0E7C02AF0E8C02BF0E9C02CF0A1
:10174000000E2D6E000E2E6EE80E2F6E410E306EC6
:101750009AEC1EF0D8B0AFEF0BF0B1EF0BF0CBEF7F
:101760000BF0010E836E0D0E0101766FFB0EE82E5D
:10177000FED7762FFCD700D0000E836E020E01013B
:10178000776FC70E766F880EE82EFED7762FFCD7C0
:10179000772FFAD700F0000E296E000E2A6EE80EA1
:1017A0002B6E410E2C6EE6C02DF0E7C02EF0E8C087
:1017B0002FF0E9C030F09AEC1EF0D8B0E2EF0BF059
:1017C000E4EF0BF016EF0CF0E6C029F0E7C02AF0CA
:1017D000E8C02BF0E9C02CF0000E2D6E000E2E6E2E
:1017E000F80E2F6E410E306E9AEC1EF0D8B0FBEF63
:1017F0000BF0FDEF0BF016EF0CF0010E836E070EF1
:101800000101766F7D0EE82EFED7762FFCD7000EF5
:10181000836E020E0101776FC70E766F880EE82E79
:10182000FED7762FFCD7772FFAD700F0000E296E5F
:10183000000E2A6EF80E2B6E410E2C6EE6C02DF0B7
:10184000E7C02EF0E8C02FF0E9C030F09AEC1EF0AF
:10185000D8B02DEF0CF02FEF0CF062EF0CF0E6C0DB
:1018600029F0E7C02AF0E8C02BF0E9C02CF0000E08
:101870002D6E000E2E6E040E2F6E420E306E9AEC00
:101880001EF0D8B046EF0CF048EF0CF062EF0CF011
:10189000010E836E040E0101766FE40EE82EFED772
:1018A000762FFCD700F0000E836E020E0101776FD9
:1018B000C70E766F880EE82EFED7762FFCD7772FCF
:1018C000FAD700F0000E296E000E2A6E040E2B6E61
:1018D000420E2C6EE6C02DF0E7C02EF0E8C02FF0CF
:1018E000E9C030F09AEC1EF0D8B079EF0CF07BEF45
:1018F0000CF0A9EF0CF0E6C029F0E7C02AF0E8C030
:101900002BF0E9C02CF0000E2D6E000E2E6E140E82
:101910002F6E420E306E9AEC1EF0D8B092EF0CF0A3
:1019200094EF0CF0A9EF0CF0010E836EC80E00D0FE
:10193000E82EFDD7000E836E020E0101776FC70EF1
:10194000766F880EE82EFED7762FFCD7772FFAD742
:1019500000F0000E296E000E2A6E1C0E2B6E420E39
:101960002C6EE6C02DF0E7C02EF0E8C02FF0E9C0E5
:1019700030F09AEC1EF0D8B0C0EF0CF0C2EF0CF0D3
:10198000C6EF0CF0020E836EC8EF0CF0000E836EF3
:1019900082A0CDEF0CF0CFEF0CF006EF0BF003EFD1
:1019A0000EF0010E07EC26F0010E0A6E2B0E0B6EE8
:1019B000080E0C6E010E35EC23F0010E0A6EAF0E10
:1019C0000B6E080E0C6E040E35EC23F00D0E0A6E35
:1019D0009D0E0B6E080E0C6E040E35EC23F06C0E93
:1019E0000001CC6F010ECD6FD40ECE6F080ECF6FFD
:1019F000FEC0D0F0FFC0D1F056EC24F0140E0A6EF9
:101A00006C0E0B6E010E0C6E040E35EC23F0020E04
:101A1000CBEC24F002C0FCF003C0FDF0FCC002F0EF
:101A2000FDC003F0000E03BEFF0E046E056E010E36
:101A3000DBEC19F002C010F003C011F004C012F08A
:101A400005C013F0F00E146EA70E156EC60E166EBE
:101A50003D0E176E7EEC13F010C0EAF011C0EBF0F3
:101A600012C0ECF013C0EDF0580E0001CC6F010E67
:101A7000CD6F930ECE6F080ECF6FEAC0D0F0EBC0E3
:101A8000D1F0ECC0D2F0EDC0D3F056EC24F0010E52
:101A90000A6E580E0B6E010E0C6E020E35EC23F022
:101AA0000A0E0A6E250E0B6E020ED2EC25F082A0F5
:101AB0005CEF0DF05EEF0DF007EF0DF003EF0EF0B1
:101AC000010E07EC26F0010E0A6E2B0E0B6E080EAF
:101AD0000C6E010E35EC23F0010E0A6EB80E0B6E83
:101AE000080E0C6E040E35EC23F00D0E0A6E9D0EE2
:101AF0000B6E080E0C6E040E35EC23F06C0E00011C
:101B0000CC6F010ECD6FD40ECE6F080ECF6FFEC01E
:101B1000D0F0FFC0D1F056EC24F0140E0A6E6C0E1B
:101B20000B6E010E0C6E040E35EC23F0030ECBECA5
:101B300024F002C0F6F003C0F7F0F6C002F0F7C0E0
:101B400003F0000E03BEFF0E046E056E010EDBEC0B
:101B500019F002C010F003C011F004C012F005C06B
:101B600013F0680E146EE80E156E9F0E166E3B0E87
:101B7000176E7EEC13F010C0DEF011C0DFF012C063
:101B8000E0F013C0E1F0580E0001CC6F010ECD6FF4
:101B90006E0ECE6F080ECF6FDEC0D0F0DFC0D1F07A
:101BA000E0C0D2F0E1C0D3F056EC24F0010E0A6E92
:101BB000580E0B6E010E0C6E020E35EC23F082A057
:101BC000E4EF0DF0E6EF0DF096EF0DF003EF0EF001
:101BD000FEC076F1FFC077F101017751000AD8B459
:101BE000F4EF0DF003EF0EF07651010AD8B4D0EF08
:101BF0000AF0030AD8B4D1EF0CF0010AD8B460EFB0
:101C00000DF003EF0EF01200A6C0D9FFA7C0DAFF57
:101C1000DECFF6FFDDCFF7FF0800F550250AD8A488
:101C200014EF0EF016EF0EF002EF11F0A6C0D9FF80
:101C3000A7C0DAFFDE2A000EDD22000E0001F16FE0
:101C4000000EF06FF0C0F4F0F1C0F5F0F269F36946
:101C5000A6C0D9FFA7C0DAFFDECFF6FFDDCFF7FFC2
:101C60000800F5502A0AD8A438EF0EF03AEF0EF02B
:101C700063EF0EF0A6C0D9FFA7C0DAFFDE2A000E80
:101C8000DD22A8C0D9FFA9C0DAFFDFCFAAF0020E7B
:101C9000DE26DFCFABF0000EDD22AAC0D9FFABC03D
:101CA000DAFFDECFF0F0DDCFF1F0F1BF5CEF0EF048
:101CB0005AEF0EF0A7EF0EF0F481F06DF11FD8B0DF
:101CC000F12BA7EF0EF0A6C0D9FFA7C0DAFFDECF39
:101CD00009F0DDCF0AF0B5EC1AF009C0F0F00AC047
:101CE000F1F07AEF0EF0A6C0D9FFA7C0DAFFDE2A26
:101CF000000EDD22D00E0001AA6FFF0EAB6FA6C052
:101D0000D9FFA7C0DAFFDECFF6FFDDCFF7FF08006F
:101D1000F550AC6FAD6BAA51AC27AB51AD23AD51B3
:101D20000AE10A0EAC5DD8A098EF0EF09BEF0EF022
:101D3000010E9CEF0EF0000EB66FB76BB651B711E7
:101D4000D8A4A5EF0EF0A7EF0EF073EF0EF0A6C02B
:101D5000D9FFA7C0DAFFDECFF6FFDDCFF7FF08001F
:101D6000F5502E0AD8A4B7EF0EF0B9EF0EF037EF0A
:101D70000FF0000EF36F000EF26FA6C0D9FFA7C0E0
:101D8000DAFFDE2A000EDD22A6C0D9FFA7C0DAFFE7
:101D9000DECFF6FFDDCFF7FF0800F5502A0AD8A402
:101DA000D4EF0EF0D6EF0EF0F3EF0EF0A6C0D9FF91
:101DB000A7C0DAFFDE2A000EDD22A8C0D9FFA9C025
:101DC000DAFFDFCFAAF0020EDE26DFCFABF0000E87
:101DD000DD22AAC0D9FFABC0DAFFDECFF2F0DDCF43
:101DE000F3F037EF0FF0A6C0D9FFA7C0DAFFDECFC0
:101DF00009F0DDCF0AF0B5EC1AF009C0F2F00AC024
:101E0000F3F00AEF0FF0A6C0D9FFA7C0DAFFDE2A71
:101E1000000EDD22D00E0001AA6FFF0EAB6FA6C030
:101E2000D9FFA7C0DAFFDECFF6FFDDCFF7FF08004E
:101E3000F550AC6FAD6BAA51AC27AB51AD23AD5192
:101E40000AE10A0EAC5DD8A028EF0FF02BEF0FF0DF
:101E5000010E2CEF0FF0000EB86FB96BB851B9112D
:101E6000D8A435EF0FF037EF0FF003EF0FF0A6C057
:101E7000D9FFA7C0DAFFDECFF6FFDDCFF7FF0800FE
:101E8000F550086E096ACCEC23F008500001C06FD1
:101E9000C051D8B44EEF0FF050EF0FF08AEF0FF0B3
:101EA000A6C0D9FFA7C0DAFFDECFAAF0DDCFABF026
:101EB000010EAA27000EAB23AAC0F6FFABC0F7FFA6
:101EC0000800F550086E096ACCEC23F008500001B8
:101ED000C16FC151D8B46FEF0FF071EF0FF08AEFFF
:101EE0000FF0A6C0D9FFA7C0DAFFDECFAAF0DDCF82
:101EF000ABF0020EAA27000EAB23AAC0F6FFABC0C0
:101F0000F7FF0800F550086E096ACCEC23F0085082
:101F10000001C26FA6C0D9FFA7C0DAFFDECFF6FF6F
:101F2000DDCFF7FF0800F550640AD8B49AEF0FF040
:101F30009CEF0FF0AEEF0FF0A6C0D9FFA7C0DAFFFD
:101F4000DECFF6FFDDCFF7FF0800F550690AD8A411
:101F5000ACEF0FF0AEEF0FF0EEEF0FF0A6C0D9FF31
:101F6000A7C0DAFFDE2A000EDD22A8C0D9FFA9C073
:101F7000DAFFDFCFAAF0020EDE26DFCFABF0000ED5
:101F8000DD22AAC0D9FFABC0DAFFDECFAEF0DDCFD5
:101F9000AFF0000EAFBFFF0EB06FB16FB26FB36F97
:101FA000B46FB56FA4C01DF0A5C01EF0AEC01FF089
:101FB000AFC020F0B0C021F0B1C022F0B2C023F019
:101FC000B3C024F0B4C025F0B5C026F060EC17F023
:101FD0001DC0A4F01EC0A5F01DEF11F0660EC019C3
:101FE000D8A4F5EF0FF0F7EF0FF037EF10F0A6C021
:101FF000D9FFA7C0DAFFDECFF6FFDDCFF7FF08007D
:10200000F5CFC3F0A6C0D9FFA7C0DAFFDE2A000EC5
:10201000DD22A8C0D9FFA9C0DAFFDFCFAAF0040EE5
:10202000DE26DFCFABF0000EDD22AAC0D9FFABC0A9
:10203000DAFFDECFBCF0DECFBDF0DECFBEF0DECF0C
:10204000BFF0A4C060F0A5C061F0BCC062F0BDC02C
:1020500063F0BEC064F0BFC065F0C3C066F06CEC56
:1020600004F060C0A4F061C0A5F01DEF11F0C00E37
:10207000026E000E036ED10E046E080E056E000E89
:10208000076E020E066E08EC20F002500310D8A472
:102090004CEF10F04EEF10F0CAEF10F0A6C0D9FFD1
:1020A000A7C0DAFFDECFAAF0DDCFABF0010E000152
:1020B000AA27000EAB23AAC0F6FFABC0F7FF0800AB
:1020C000F5CFC3F0BF0EAA6FFF0EAB6FA6C0D9FF4E
:1020D000A7C0DAFFDECFF6FFDDCFF7FF0800F5502F
:1020E000AC6FAD6BAA51AC27AB51AD23AD510AE13A
:1020F0001A0EAC5DD8A07FEF10F082EF10F0010E49
:1021000083EF10F0000EBA6FBB6BBA51BB11D8B49D
:102110008CEF10F08EEF10F0A8EF10F0A8C0D9FFF0
:10212000A9C0DAFFDFCFAAF0040EDE26DFCFABF0C6
:10213000000EDD22AAC0D9FFABC0DAFFDECFBCF0B3
:10214000DECFBDF0DECFBEF0DECFBFF0C0EF10F0CF
:10215000A8C0D9FFA9C0DAFFDFCFAAF0040EDE269F
:10216000DFCFABF0000EDD22AAC0D9FFABC0DAFF93
:10217000DECFBCF0DECFBDF0DECFBEF0DECFBFF0F5
:10218000020EA6C0D9FFA7C0DAFFDE26000EDD22B0
:1021900021EF10F0A6C0D9FFA7C0DAFFDECFF6FF0F
:1021A000DDCFF7FF0800F550250AD8A4DAEF10F0CC
:1021B000DCEF10F0F4EF10F0A6C0D9FFA7C0DAFFF3
:1021C000DE2A000EDD22000E036E250E026EA4C074
:1021D00004F0A5C005F073EC20F0000E0001A56F1F
:1021E000010EA46F1DEF11F0A6C0D9FFA7C0DAFF42
:1021F000DE2A000EDD22000E0001A56F000EA46F86
:102200001DEF11F0A6C0D9FFA7C0DAFFDECFF6FFA1
:10221000DDCFF7FF0800F550026E036AA4C004F09A
:10222000A5C005F073EC20F0A6C0D9FFA7C0DAFF67
:10223000DE2A000EDD22EDEF10F012004550800B7B
:102240004E6E45504524506E44AE29EF11F02BEFF1
:1022500011F02CEF11F050805050D8B432EF11F043
:1022600034EF11F049EF11F05028D8A43AEF11F0F3
:102270003CEF11F044EF11F0000E426E000E436E81
:10228000000E446E000E456E448E000E456E51EFFA
:1022900011F0000E426E000E436E000E446E000EF2
:1022A000456E4950800B4F6E4E504F18D8B45BEFBF
:1022B00011F05DEF11F05EEF11F04E8C49504924A2
:1022C0004F6E48AE66EF11F068EF11F069EF11F054
:1022D0004F804F50D8B46FEF11F071EF11F086EFCF
:1022E00011F04F28D8A477EF11F079EF11F081EFBA
:1022F00011F0000E466E000E476E000E486E000E86
:10230000496E488E000E496E8EEF11F0000E466E3B
:10231000000E476E000E486E000E496E50504F5C26
:10232000D8B095EF11F097EF11F0BEEF11F04EAC71
:102330009CEF11F09EEF11F0A0EF11F0800E4E1AFD
:1023400050C051F04FC050F051C04FF042C051F05A
:1023500046C042F051C046F043C051F047C043F080
:1023600051C047F044C051F048C044F051C048F05B
:1023700045C051F049C045F051C049F0000E516EC2
:1023800050504FC04AF04B6A4A5E000E4B5A4BBE4B
:10239000D3EF11F04B5009E11A0E4A5CD8A0D3EFED
:1023A00011F0D5EF11F00CEF12F042504310441031
:1023B0004510D8A4DEEF11F0E1EF11F0010EE2EFCD
:1023C00011F0000E516E000E426E000E436E000EB4
:1023D000446E000E456E4FC050F015EF12F051A044
:1023E000F4EF11F0F6EF11F0FCEF11F0D89051304E
:1023F0000109516EFEEF11F0D890513242A003EF67
:1024000012F005EF12F006EF12F0518E453445320E
:10241000443243324232502A4F50505CD8A013EF1E
:1024200012F015EF12F0EFEF11F04EBC1AEF12F0B0
:102430001CEF12F05CEF12F05050D8A422EF12F013
:1024400024EF12F02EEF12F0000E426E000E436EDB
:10245000000E446E000E456E7DEF13F0465042268E
:1024600047504322485044224950452245A03BEF63
:1024700012F03DEF12F0E9EF12F051A042EF12F02E
:1024800044EF12F04AEF12F0D89051300109516E2A
:102490004CEF12F0D890513242A051EF12F053EFAE
:1024A00012F054EF12F0518E45344532443243322B
:1024B0004232502AE9EF12F04650425C47504358EE
:1024C000485044584550800A4A6E4950800A4A583C
:1024D000D8B06DEF12F06FEF12F09AEF12F0425099
:1024E000465C4A6E435047584B6E445048584C6EB9
:1024F000455049584D6EFF0E4A24426EFF0E4B2048
:10250000436EFF0E4C20446EFF0E4D20456E800E34
:102510004E1A516C5150D8A490EF12F092EF12F075
:10252000A2EF12F0010E4226000E43224422452261
:10253000A2EF12F04650425E4750435A4850445A68
:102540004950455A4250431044104510D8A4ABEFAF
:1025500012F0ADEF12F0E2EF12F05150D8A4B3EF49
:1025600012F0B5EF12F0E2EF12F0000E426E000E24
:10257000436E000E446E000E456E7DEF13F0D89052
:10258000423643364436453651AEC9EF12F0CBEFF2
:1025900012F0CCEF12F0428051A0D1EF12F0D3EF45
:1025A00012F0D7EF12F0D8805136D9EF12F0D89050
:1025B00051365050D8B4DFEF12F0E1EF12F0E2EFF5
:1025C00012F0500644AEE7EF12F0E9EF12F0BFEF61
:1025D00012F0000E4F6E51AEF0EF12F0F2EF12F06B
:1025E0000AEF13F051C04AF07F0E4A16D8B4FBEF41
:1025F00012F0FDEF12F001EF13F0010E4F6E0AEF33
:1026000013F042A006EF13F008EF13F00AEF13F0F7
:10261000FDEF12F04F50D8B410EF13F012EF13F09B
:102620003DEF13F0010E4226000E432244224522C4
:1026300045A01DEF13F01FEF13F03DEF13F042C064
:102640004AF043C04BF044C04CF045C04DF04D340F
:102650004D324C324B324A324AC042F04BC043F00A
:102660004CC044F04DC045F05028D8B43AEF13F0B8
:102670003CEF13F03DEF13F0502A5028D8B443EF4D
:1026800013F045EF13F04DEF13F05050D8A44BEF7B
:1026900013F04DEF13F05FEF13F0000E426E000EDB
:1026A000436E000E446E000E456E5050D8A45BEF92
:1026B00013F05DEF13F05FEF13F0000E4E6E50A0BD
:1026C00064EF13F066EF13F069EF13F0448E6AEFD6
:1026D00013F0449ED8905030456E4EAE72EF13F01A
:1026E00074EF13F075EF13F0458E42C042F043C013
:1026F00043F044C044F045C045F012001350800B35
:102700001C6E13501324226E12AE89EF13F08BEF60
:1027100013F08CEF13F022802250D8B492EF13F014
:1027200094EF13F0A7EF13F02228D8A49AEF13F038
:102730009CEF13F0A4EF13F0000E106E000E116E5C
:10274000000E126E000E136E128EAFEF13F0000E1D
:10275000106E000E116E000E126E000E136E1750EA
:10276000800B1C1A175017241D6E16AEBAEF13F00B
:10277000BCEF13F0BDEF13F01D801D50D8B4C3EFB4
:1027800013F0C5EF13F0D8EF13F01D28D8A4CBEF4A
:1027900013F0CDEF13F0D5EF13F0000E146E000E12
:1027A000156E000E166E000E176E168EE0EF13F00B
:1027B000000E146E000E156E000E166E000E176ED3
:1027C0001D50D8B4E6EF13F0E8EF13F0F0EF13F07C
:1027D0002250D8A4EEEF13F0F0EF13F0FAEF13F05D
:1027E000000E106E000E116E000E126E000E136EB3
:1027F00092EF15F016501002F3CF27F0F4CF28F027
:1028000027501E6E1F6A206A216A2850236E246A90
:10281000256A266A15501102F3CF27F0F4CF28F06D
:1028200027501E26000E1F22202221222850232658
:10283000000E24222522262214501202F3CF27F064
:10284000F4CF28F027501E26000E1F22202221221E
:1028500028502326000E24222522262220C021F0E3
:102860001FC020F01EC01FF01E6A14501102F3CFCB
:1028700027F0F4CF28F027501E2628501F22000EE4
:102880002022000E212215501002F3CF27F0F4CFA2
:1028900028F027501E2628501F22000E2022000E4E
:1028A000212220C021F01FC020F01EC01FF01E6A90
:1028B00014501002F3CF27F0F4CF28F027501E2633
:1028C00028501F22000E2022000E21221650110235
:1028D000F3CF27F0F4CF28F02750232628502422C6
:1028E000000E2522000E262215501202F3CF27F0EB
:1028F000F4CF28F02750232628502422000E25222A
:10290000000E262216501202F3CF27F0F4CF28F043
:102910002750186E2850196E1A6A1B6A1AC01BF0CD
:1029200019C01AF018C019F0186A18502326195047
:1029300024221A5025221B5026221EC018F01FC028
:1029400019F020C01AF021C01BF0190EADEF14F0E1
:10295000D8901B321A3219321832E82EA8EF14F030
:1029600018502326195024221A5025221B502622A3
:1029700020C021F01FC020F01EC01FF01E6A1D5095
:1029800022C018F0196A1826000E1922820E182487
:10299000276EFF0E1920286EE3EF14F0D89023362F
:1029A00024362536263621AED8EF14F0DAEF14F0AF
:1029B000DBEF14F02380D8901E361F3620362136E8
:1029C0002706D8A0280625AEE8EF14F0EAEF14F0A9
:1029D000CEEF14F0000E1D6E21AEF1EF14F0F3EF08
:1029E00014F017EF15F0FF0E1E14186EFF0E1F14D3
:1029F000196EFF0E20141A6E7F0E21141B6E1850D4
:102A000019101A101B10D8B408EF15F00AEF15F0C2
:102A10000EEF15F0010E1D6E17EF15F023A013EF4A
:102A200015F015EF15F017EF15F00AEF15F01D5022
:102A3000D8B41DEF15F01FEF15F043EF15F0010EA0
:102A40002326000E24222522262226A02AEF15F076
:102A50002CEF15F043EF15F023C018F024C019F047
:102A600025C01AF026C01BF01B341B321A32193253
:102A7000183218C023F019C024F01AC025F01BC06A
:102A800026F0274A282A28BE4EEF15F0285008E1E4
:102A90002728D8A04EEF15F050EF15F05AEF15F09B
:102AA000000E236E000E246E800E256E7F0E266EA5
:102AB00088EF15F028BE67EF15F0285006E12704CF
:102AC000D8B065EF15F067EF15F073EF15F0000E55
:102AD000236E000E246E000E256E000E266E000E74
:102AE0001C6E88EF15F027C022F0FF0E2316FF0E94
:102AF00024167F0E2516000E261622A082EF15F052
:102B000084EF15F085EF15F0258ED8902230266ED3
:102B10001C50261223C010F024C011F025C012F062
:102B200026C013F012002C50800B396E2C502C2430
:102B3000406E2BAE9EEF15F0A0EF15F0A1EF15F053
:102B400040804050D8B4A7EF15F0A9EF15F0BEEFC4
:102B500015F04028D8A4AFEF15F0B1EF15F0B9EF9C
:102B600015F0000E296E000E2A6E000E2B6E000E60
:102B70002C6E2B8E000E2C6EC6EF15F0000E296EFB
:102B8000000E2A6E000E2B6E000E2C6E3050800B45
:102B9000391A30503024416E2FAED1EF15F0D3EFFB
:102BA00015F0D4EF15F041804150D8B4DAEF15F0AC
:102BB000DCEF15F0F1EF15F04128D8A4E2EF15F0A5
:102BC000E4EF15F0ECEF15F0000E2D6E000E2E6EFA
:102BD000000E2F6E000E306E2F8E000E306EF9EF4D
:102BE00015F0000E2D6E000E2E6E000E2F6E000ED4
:102BF000306E2D502E102F103010D8A402EF16F08A
:102C000004EF16F01CEF16F0000E296E000E2A6E6F
:102C1000000E2B6E000E2C6E800E2B127F0E2C12CF
:102C200039502C1229C029F02AC02AF02BC02BF0D1
:102C30002CC02CF05FEF17F04050D8A422EF16F014
:102C400024EF16F02EEF16F0000E296E000E2A6EFD
:102C5000000E2B6E000E2C6E5FEF17F0415040C03F
:102C600031F0326A315E000E325A7F0E31243A6EF4
:102C7000000E32203B6E29C035F02AC036F02BC042
:102C800037F02CC038F0000E296E000E2A6E000EB0
:102C90002B6E000E2C6E000E3C6E000E3D6E000E74
:102CA0003E6E000E3F6E000E416E8FEF16F04150EB
:102CB000D8B45DEF16F05FEF16F076EF16F0D8900F
:102CC0003536363637363836D89029362A362B36CA
:102CD0002C363FAE6EEF16F070EF16F071EF16F077
:102CE0002980D8903C363D363E363F362D50355CF7
:102CF0002E5036582F50375830503858D8A083EFC0
:102D000016F085EF16F08EEF16F03F8C2D50355EE5
:102D10002E50365A2F50375A3050385A412A190EF1
:102D2000416495EF16F097EF16F057EF16F0355017
:102D3000361037103810D8B4A0EF16F0A2EF16F006
:102D4000BAEF16F03C80BAEF16F0D89029362A3642
:102D50002B362C363FAEAFEF16F0B1EF16F0B2EFD8
:102D600016F02980D8903C363D363E363F363A063E
:102D7000D8A03B062BAEBFEF16F0C1EF16F0A5EFC3
:102D800016F0000E416E3FAEC8EF16F0CAEF16F017
:102D9000EEEF16F0FF0E3C14316EFF0E3D14326E56
:102DA000FF0E3E14336E7F0E3F14346E31503210DE
:102DB00033103410D8B4DFEF16F0E1EF16F0E5EF82
:102DC00016F0010E416EEEEF16F029A0EAEF16F0B4
:102DD000ECEF16F0EEEF16F0E1EF16F04150D8B43C
:102DE000F4EF16F0F6EF16F01AEF17F0010E2926A1
:102DF000000E2A222B222C222CA001EF17F003EF29
:102E000017F01AEF17F029C031F02AC032F02BC0AA
:102E100033F02CC034F03434343233323232313285
:102E200031C029F032C02AF033C02BF034C02CF06E
:102E30003A4A3B2A3BBE25EF17F03B5008E13A28BF
:102E4000D8A025EF17F027EF17F032EF17F0000E9C
:102E50003B6E3A68000E296E000E2A6E000E2B6E35
:102E6000000E2C6E3BBE3FEF17F03B5006E13A04DC
:102E7000D8B03DEF17F03FEF17F04DEF17F0000E11
:102E80003B6E000E3A6E000E296E000E2A6E000E8A
:102E90002B6E000E2C6E000E396E3AC040F040A032
:102EA00054EF17F056EF17F059EF17F02B8E5AEF3B
:102EB00017F02B9ED89040302C6E10EF16F01200B9
:102EC0001FC037F020C038F021C039F022C03AF0DE
:102ED00023C03BF024C03CF025C03DF026C03EF0AE
:102EE0003EBE75EF17F078EF17F0010E79EF17F08F
:102EF000000E356E366A35503610D8B482EF17F0B2
:102F000084EF17F094EF17F03E1E3D1E3C1E3B1E53
:102F10003A1E391E381E376C000E382239223A22EA
:102F20003B223C223D223E220001F3BF9AEF17F0E4
:102F30009CEF17F09DEF17F0F493F3BFAAEF17F093
:102F4000F35106E1F205D8B0A8EF17F0AAEF17F099
:102F5000B0EF17F0000E326E010E316EB4EF17F0C5
:102F6000F2C031F0F3C032F0F0C033F0F1C034F011
:102F700035503610D8A4BFEF17F0C1EF17F0C8EFE7
:102F800017F0F4A5C6EF17F0C8EF17F0CBEF17F066
:102F90003306D8A03406000E406E4F0E3F6E000E72
:102FA0000101576F50EF18F03F06D8A04006080EF9
:102FB0003F24D96E010E4020DA6E37C002F038C0CF
:102FC00003F039C004F03AC005F03BC006F03CC045
:102FD00007F03DC008F03EC009F00A0E0A6E000E70
:102FE0000B6E000E0C6E000E0D6E000E0E6E000EBF
:102FF0000F6E000E106E000E116E41EC1CF002C040
:1030000027F003C028F004C029F005C02AF006C04C
:103010002BF007C02CF008C02DF009C02EF027C0FF
:1030200014F029C015F010EC25F01450300FDF6EAD
:103030003106D8A032063306D8A0340637C002F0D5
:1030400038C003F039C004F03AC005F03BC006F0C8
:103050003CC007F03DC008F03EC009F00A0E0A6E01
:10306000000E0B6E000E0C6E000E0D6E000E0E6E3E
:10307000000E0F6E000E106E000E116E7DEC1BF038
:1030800002C037F003C038F004C039F005C03AF090
:1030900006C03BF007C03CF008C03DF009C03EF060
:1030A00040BE5BEF18F0405008E13F04D8A05BEF52
:1030B00018F05DEF18F08EEF18F037503810391017
:1030C0003A103B103C103D103E10D8A46AEF18F0A7
:1030D0006CEF18F0D4EF17F032BE79EF18F03250E1
:1030E00006E13104D8B077EF18F079EF18F0D4EF9B
:1030F00017F034BE84EF18F0345008E13304D8A040
:1031000084EF18F086EF18F08EEF18F00001F4B39A
:103110008CEF18F08EEF18F0D4EF17F03550361012
:10312000D8A495EF18F097EF18F09FEF18F0000172
:10313000F4A59DEF18F09FEF18F0BDEF18F03F06D3
:10314000D8A0400635503610D8A4A9EF18F0ABEF40
:1031500018F0B1EF18F0000E306E2B0E2F6EB5EF99
:1031600018F0000E306E2D0E2F6E080E3F24D96E13
:10317000010E4020DA6E2FC0DFFF1DC012F01EC00E
:1031800013F0080E3F24146E010E4020156E33C05C
:1031900016F034C017F0D8EC20F012C01DF013C0A8
:1031A0001EF0120000C152F001C153F002C154F0F0
:1031B00003C155F042C052F043C053F044C054F034
:1031C00045C055F0810E466EFF0E476E52C048F066
:1031D00053C049F054C04AF055C04BF0180EF6EFFA
:1031E00018F0D8904B324A3249324832E82EF1EF8B
:1031F00018F048504624506E000E4720516E51BEC4
:103200000BEF19F0515009E1170E505CD8A00BEFED
:1032100019F00DEF19F017EF19F042C042F043C05A
:1032200043F044C044F045C045F0DAEF19F051BE18
:103230001CEF19F01EEF19F08EEF19F050C046F098
:10324000FF0E476EFF0E486E7F0E496E000E4A6EEF
:1032500046662DEF19F035EF19F04A344A324932FB
:1032600048324732462E28EF19F047C04CF048C08C
:103270004DF049C04EF04AC04FF04C505214466ECB
:103280004D505314476E4E505414486E4F505514C1
:10329000496E4650471048104910D8A452EF19F013
:1032A00054EF19F056EF19F00DEF19F052C046F037
:1032B00053C047F054C048F055C049F0200E66EFA7
:1032C00019F0D8904932483247324632E82E61EF41
:1032D00019F04650471048104910D8B472EF19F051
:1032E00074EF19F07CEF19F04C5052264D505322D8
:1032F0004E5054224F5055224C1C466E4D1C476E6A
:103300004E1C486E4F1C496E46505216475053167D
:103310004850541649505516D2EF19F052C046F095
:1033200053C047F054C048F055C049F0200E9EEFFE
:1033300019F0D8904932483247324632E82E99EF98
:1033400019F04650471048104910D8A4AAEF19F0B8
:10335000ACEF19F0B6EF19F0000E526E000E536E7E
:10336000000E546E000E556ED2EF19F0D890523404
:10337000466E5334476E5434486E5534496E465049
:10338000471048104910D8B4C8EF19F0CAEF19F027
:10339000D2EF19F0000E526E000E536E800E546E76
:1033A000BF0E556E52C042F053C043F054C044F0BB
:1033B00055C045F012000A6E0A50D8B4E2EF19F079
:1033C000E4EF19F006EF1AF005BEEBEF19F0E9EFA4
:1033D00019F006EF1AF002C006F003C007F004C0AF
:1033E00008F005C009F0061E071E081E091E062A61
:1033F000000E07220822092206C00CF007C00DF0BB
:1034000008C00EF009C00FF00EEF1AF002C00CF069
:1034100003C00DF004C00EF005C00FF00250031001
:1034200004100510D8A417EF1AF019EF1AF023EFC3
:103430001AF0000E026E000E036E000E046E000EF7
:10344000056EB4EF1AF0960E0B6E2DEF1AF00B2AE4
:10345000D8900F320E320D320C32000E0C14066E64
:10346000000E0D14076E000E0E14086EFE0E0F14E3
:10347000096E0650071008100910D8A442EF1AF080
:1034800044EF1AF027EF1AF052EF1AF00B2A010E50
:103490000C26000E0D220E220F22D8900F320E3273
:1034A0000D320C32000E0C14066E000E0D14076E59
:1034B000000E0E14086EFF0E0F14096E0650071052
:1034C00008100910D8A467EF1AF069EF1AF046EF58
:1034D0001AF071EF1AF00B06D8900C360D360E3636
:1034E0000F360EBE76EF1AF078EF1AF080EF1AF072
:1034F000020E0B607EEF1AF080EF1AF06BEF1AF0FD
:103500000BB085EF1AF087EF1AF088EF1AF00E9ED5
:10351000D8900B320BC006F0076A086A096A06C029
:1035200009F0086A076A066A06500C1207500D1265
:1035300008500E1209500F120A50D8B4A2EF1AF018
:10354000A4EF1AF0ACEF1AF005BEABEF1AF0A9EF3A
:103550001AF0ACEF1AF00F8E0CC002F00DC003F0A1
:103560000EC004F00FC005F01200000E176E000E22
:10357000166E000E106E000E0F6EC1EF1AF0094AA3
:103580000A2A010E156E09C0F6FF0AC0F7FF0800EF
:10359000F550200AD8B4CFEF1AF0D1EF1AF0EEEFC1
:1035A0001AF0F70E0B6EFF0E0C6E09C0F6FF0AC084
:1035B000F7FF0800F5500D6E0E6A0B500D260C50EB
:1035C0000E220E5009E1050E0D5CD8A0EAEF1AF0AC
:1035D000ECEF1AF0EEEF1AF0000E156E15C011F0B8
:1035E000126A11501210D8A4F8EF1AF0FAEF1AF07C
:1035F000BFEF1AF004EF1BF0000E106E010E0F6EFD
:10360000094A0A2A39EF1BF009C0F6FF0AC0F7FF82
:103610000800F5500B6E0C6A0C50000AD8B413EF7A
:103620001BF039EF1BF00B502B0AD8B400EF1BF046
:10363000060AD8B4FCEF1AF039EF1BF016C002F0FE
:1036400017C003F0000E056E0A0E046E9FEC25F005
:1036500009C0F6FF0AC0F7FF0800F550025E000E31
:10366000035A300E0224166E000E0320176E00EF70
:103670001BF0D00E0B6EFF0E0C6E09C0F6FF0AC0D9
:10368000F7FF0800F5500D6E0E6A0B500D260C501A
:103690000E220E500AE10A0E0D5CD8A052EF1BF06C
:1036A00055EF1BF0010E56EF1BF0000E136E146A5F
:1036B00013501410D8A45FEF1BF061EF1BF01EEF46
:1036C0001BF00F501010D8A468EF1BF06AEF1BF02E
:1036D00078EF1BF016C00BF017C00CF00B1E0C1E81
:1036E0000B4A0C2A0BC009F00CC00AF07CEF1BF04F
:1036F00016C009F017C00AF01200000E136E11BEBA
:1037000086EF1BF084EF1BF098EF1BF0111E101ECC
:103710000F1E0E1E0D1E0C1E0B1E0A6C000E0B2221
:103720000C220D220E220F2210221122010E136EE6
:1037300009BE9FEF1BF09DEF1BF0B1EF1BF0091EC0
:10374000081E071E061E051E041E031E026C000E28
:103750000322042205220622072208220922010E42
:10376000131A20EE14F0070EDE6AE806FDE20A5096
:103770000B100C100D100E100F1010101110D8B4EB
:10378000C4EF1BF0C6EF1BF018EF1CF0010E126E19
:10379000D4EF1BF0D8900A360B360C360D360E36A9
:1037A0000F3610361136122A11AED9EF1BF0DBEFAF
:1037B0001BF0CAEF1BF0D8901436153616361736A4
:1037C000183619361A361B360A50025C0B5003584D
:1037D0000C5004580D5005580E5006580F500758FD
:1037E0001050085811500958D8A0F9EF1BF0FBEF02
:1037F0001BF00CEF1CF00A50025E0B50035A0C50E9
:10380000045A0D50055A0E50065A0F50075A1050C0
:10381000085A1150095A1480D890113210320F32C0
:103820000E320D320C320B320A32122EDBEF1BF04D
:103830001350D8B41EEF1CF020EF1CF030EF1CF03A
:103840001B1E1A1E191E181E171E161E151E146C7E
:10385000000E152216221722182219221A221B22C4
:1038600014C002F015C003F016C004F017C005F034
:1038700018C006F019C007F01AC008F01BC009F004
:103880001200000E136E09BE4AEF1CF048EF1CF048
:103890005CEF1CF0091E081E071E061E051E041EF6
:1038A000031E026C000E03220422052206220722B8
:1038B00008220922010E136E11BE63EF1CF061EFA6
:1038C0001CF073EF1CF0111E101E0F1E0E1E0D1E9D
:1038D0000C1E0B1E0A6C000E0B220C220D220E2257
:1038E0000F22102211220A500B100C100D100E1076
:1038F0000F1010101110D8B480EF1CF082EF1CF0E4
:10390000CAEF1CF0010E126E90EF1CF0D8900A3630
:103910000B360C360D360E360F3610361136122A8F
:1039200011AE95EF1CF097EF1CF086EF1CF00A50DB
:10393000025C0B5003580C5004580D5005580E50A3
:1039400006580F5007581050085811500958D8A061
:10395000ACEF1CF0AEEF1CF0BEEF1CF00A50025EA4
:103960000B50035A0C50045A0D50055A0E50065A6B
:103970000F50075A1050085A1150095AD890113256
:1039800010320F320E320D320C320B320A32122E3E
:1039900097EF1CF01350D8B4D0EF1CF0D2EF1CF00E
:1039A000E2EF1CF0091E081E071E061E051E041E5F
:1039B000031E026C000E03220422052206220722A7
:1039C0000822092202C002F003C003F004C004F080
:1039D00005C005F006C006F007C007F008C008F0F3
:1039E00009C009F01200046E9598959A959C959ED1
:1039F0008C988C9A8C9C8C9E8C96210EE82EFED7EF
:103A000000F004C002F0023A0F0E0216010E021678
:103A1000023A8C500218EF0B02188C6E04C002F0B0
:103A2000050E036ED8900232032E12EF1DF0010E28
:103A30000216023A02468C500218DF0B02188C6EF6
:103A400004C002F0060E036ED8900232032E24EF5B
:103A50001DF0010E0216023A024602468C50021870
:103A6000BF0B02188C6E026A04AE01D0022A010E4E
:103A70000216023202328C5002187F0B02188C6E32
:103A80008C86210EE82EFED700F08C9604C002F042
:103A9000010E0216023A8C500218EF0B02188C6EBF
:103AA00004C002F0D8900232070E0216023A024613
:103AB0008C500218DF0B02188C6E04C002F0D890F4
:103AC0000232D8900232030E0216023A0246024631
:103AD0008C500218BF0B02188C6E04C002F0D890F4
:103AE0000232D8900232D8900232010E021602320F
:103AF00002328C5002187F0B02188C6E8C86210EBD
:103B0000E82EFED700F08C969588958A958C958E38
:103B100012004F0EEAEC25F0500EEAEC25F0430EB1
:103B2000EAEC25F0490EEAEC25F04F0EEAEC25F020
:103B30004E0EEAEC25F0450EEAEC25F0530EEAECC9
:103B400025F03A0EEAEC25F00A0EEAEC25F00D0E0F
:103B5000EAEC25F0310EEAEC25F02E0EEAEC25F029
:103B6000330EEAEC25F0340EEAEC25F00A0EEAEC0E
:103B700025F00D0EEAEC25F0320EEAEC25F02E0EC3
:103B8000EAEC25F0330EEAEC25F0350EEAEC25F0F0
:103B90000A0EEAEC25F00D0EEAEC25F0330EEAEC05
:103BA00025F02E0EEAEC25F0330EEAEC25F0360E69
:103BB000EAEC25F00A0EEAEC25F00D0EEAEC25F011
:103BC000340EEAEC25F02E0EEAEC25F0330EEAEC8A
:103BD00025F0370EEAEC25F00A0EEAEC25F00D0E82
:103BE000EAEC25F0350EEAEC25F02E0EEAEC25F095
:103BF000330EEAEC25F0380EEAEC25F00A0EEAEC7A
:103C000025F00D0EEAEC25F0360EEAEC25F02E0E2E
:103C1000EAEC25F0330EEAEC25F0390EEAEC25F05B
:103C20000A0EEAEC25F00D0EEAEC25F012005434F1
:103C300055345B6E5B50D8A420EF1EF022EF1EF0CF
:103C40002CEF1EF0000E526E000E536E000E546EDE
:103C5000000E556E99EF1EF052C056F053C057F04B
:103C600054C058F055C059F0200E3CEF1EF0D890CB
:103C70005932583257325632E82E37EF1EF056502E
:103C80005A6E548EFF0E5216FF0E5316FF0E541628
:103C9000000E5516960E5B5E5BBE53EF1EF051EFA5
:103CA0001EF069EF1EF05B50800A970FD8B05BEFF3
:103CB0001EF05DEF1EF05FEF1EF022EF1EF0D890B9
:103CC00055325432533252325B3E5FEF1EF081EF79
:103CD0001EF01F0E5B646FEF1EF071EF1EF079EFA8
:103CE0001EF022EF1EF0D890523653365436553619
:103CF0005B065B50D8A47FEF1EF081EF1EF073EFE0
:103D00001EF05A50D8B487EF1EF089EF1EF091EFE5
:103D10001EF0551E541E531E526C000E5322542288
:103D2000552252C052F053C053F054C054F055C005
:103D300055F01200000E2914316E000E2A14326E56
:103D4000800E2B14336E7F0E2C14346E31503210D3
:103D500033103410D8A4AFEF1EF0B1EF1EF0B9EF5E
:103D60001EF0000E296E000E2A6E000E2B6E000E45
:103D70002C6E000E2D14316E000E2E14326E800E3D
:103D80002F14336E7F0E3014346E315032103310D6
:103D90003410D8A4CEEF1EF0D0EF1EF0D8EF1EF0F6
:103DA000000E2D6E000E2E6E000E2F6E000E306E69
:103DB0002CAEDDEF1EF0DFEF1EF0E8EF1EF0296CF9
:103DC0002A1ED8B02A2A2B1ED8B02B2A800E2C5699
:103DD00030AEEDEF1EF0EFEF1EF0F8EF1EF02D6CA1
:103DE0002E1ED8B02E2A2F1ED8B02F2A800E305665
:103DF000000E291A000E2A1A000E2B1A800E2C1AF9
:103E0000000E2D1A000E2E1A000E2F1A800E301AD8
:103E10002D50295C2E502A582F502B5830502C589A
:103E2000D8B015EF1FF017EF1FF01AEF1FF0D89062
:103E30001BEF1FF0D880120004C10CF005C10DF07B
:103E400006C10EF007C10FF002C00CF003C00DF068
:103E500004C00EF005C00FF00CC006F00DC007F056
:103E60000EC008F00FC009F0180E3CEF1FF0D890FC
:103E70000932083207320632E82E37EF1FF00650BB
:103E80000A6E0B6A0A500B10D8A449EF1FF04BEFD3
:103E90001FF06BEF1FF0D8900C34066E0D34076ED8
:103EA0000E34086E0F34096E065007100810091002
:103EB000D8A45DEF1FF05FEF1FF065EF1FF0000E5D
:103EC000036E020E026E9AEF1FF0000E036E030ED9
:103ED000026E9AEF1FF00A280B10D8A472EF1FF0A1
:103EE00074EF1FF096EF1FF00CC006F00DC007F046
:103EF0000EC008F00FC009F0090ED890063607363C
:103F000008360936E82E7DEF1FF00650071008101E
:103F10000910D8B48EEF1FF091EF1FF0010E92EF51
:103F20001FF0000E026E036A9AEF1FF0000E036E80
:103F3000040E026E120006009EAAA1EF1FF0A3EF6E
:103F40001FF006EF20F0DEEC25F05C6E9E9A310E3D
:103F50005C18D8B4AEEF1FF0B0EF1FF0DDEF1FF02C
:103F6000320E5C18D8B4B7EF1FF0B9EF1FF0DDEFD9
:103F70001FF0330E5C18D8B4C0EF1FF0C2EF1FF073
:103F8000DDEF1FF0340E5C18D8B4C9EF1FF0CBEF93
:103F90001FF0DDEF1FF0350E5C18D8B4D2EF1FF024
:103FA000D4EF1FF0DDEF1FF0360E5C18D8A4DBEF66
:103FB0001FF0DDEF1FF0EEEF1FF0200EF5EC25F007
:103FC0004F0EF5EC25F04B0EF5EC25F00A0EF5EC56
:103FD00025F00D0EF5EC25F006EF20F0200EF5ECA7
:103FE00025F0450EF5EC25F0520EF5EC25F0520EBD
:103FF000F5EC25F04F0EF5EC25F0520EF5EC25F022
:104000000A0EF5EC25F00D0EF5EC25F05D92110091
:1040100002C009F003C00AF004C00BF005C00CF0A8
:104020000606D8A00706062806E10728D8A41BEF35
:1040300020F01DEF20F02AEF20F0000E036E000E9E
:10404000026E72EF20F0094A0A2A0B4A0C2A060671
:10405000D8A0070609C0D9FF0AC0DAFFDF50D8B4DC
:1040600034EF20F036EF20F061EF20F00BC0F6FFC8
:104070000CC0F7FF0800F5500009D8B442EF20F05B
:1040800044EF20F061EF20F006500710D8B44BEF5A
:1040900020F04DEF20F061EF20F009C0D9FF0AC0F9
:1040A000DAFFDF50086E0BC0F6FF0CC0F7FF080008
:1040B000F5500818D8B45FEF20F061EF20F023EF3F
:1040C00020F009C0D9FF0AC0DAFFDF50086E0BC02C
:1040D000F6FF0CC0F7FF0800F550085C026E036A9B
:1040E000D8A00306120004500510D8B47AEF20F0CF
:1040F0007CEF20F085EF20F004500510D8A483EF6A
:1041000020F085EF20F08AEF20F002500FEC26F02F
:10411000D7EF20F020EE04F00450D9260550DA2223
:10412000DE50DE10D8B497EF20F099EF20F0B4EF16
:1041300020F020EE04F00450D9260550DA2210EECB
:1041400002F00450E1260550E222DE50E65CE65023
:10415000800A0A6EDE50800A0A58D8B0B2EF20F00A
:10416000B4EF20F0D7EF20F020EE02F00450D92673
:104170000550DA22DECF06F0DDCF07F004C0D9FF0C
:1041800005C0DAFFDECF08F0DDCF09F006500824C5
:10419000D96E07500920DA6E02C0DFFF20EE02F070
:1041A0000450D9260550DA22DE2A000EDD22120044
:1041B0000001F4A1DEEF20F0E0EF20F0EAEF20F0C4
:1041C00014C00BF015C00CF012C00DF013C00EF0AF
:1041D000EEEC24F017BEEFEF20F0F1EF20F0F7EF58
:1041E00020F016C01BF017C01CF0FBEF20F0000EF3
:1041F0001C6E000E1B6E000E1A6E000E196E0DEF77
:1042000021F0000E036E200E026E12C004F013C0E7
:1042100005F073EC20F0194A1A2A1B50195C1A5049
:10422000800A186E1C50800A1858D8A01AEF21F086
:104230001CEF21F001EF21F00001F4B122EF21F099
:1042400024EF21F02EEF21F014C00BF015C00CF07C
:1042500012C00DF013C00EF0EEEC24F014C002F00A
:1042600015C003F084EC25F01B500224126E1C5084
:104270000320136E1200000E076E05BE44EF21F0FE
:1042800042EF21F04AEF21F0046C051ED8B0052A58
:10429000010E076E03BE51EF21F04FEF21F057EFF3
:1042A00021F0026C031ED8B0032A010E071A000E7B
:1042B000096E000E086E04500510D8B462EF21F0AC
:1042C00064EF21F08CEF21F0010E066E6CEF21F00F
:1042D000D89004360536062A05AE71EF21F073EF4B
:1042E00021F068EF21F0D890083609360450025CBE
:1042F00005500358D8A07FEF21F081EF21F086EF21
:1043000021F00450025E0550035A0880D89005320F
:104310000432062E73EF21F00750D8B492EF21F04B
:1043200094EF21F098EF21F0086C091ED8B0092A0B
:1043300008C002F009C003F01200000E076E03BEB1
:10434000A6EF21F0A4EF21F0ACEF21F0026C031EE8
:10435000D8B0032A010E076E05BEB3EF21F0B1EF0E
:1043600021F0B7EF21F0046C051ED8B0052A0450E7
:104370000510D8B4BEEF21F0C0EF21F0E4EF21F03A
:10438000010E066EC8EF21F0D89004360536062AD5
:1043900005AECDEF21F0CFEF21F0C4EF21F00450B6
:1043A000025C05500358D8A0D8EF21F0DAEF21F0D5
:1043B000DEEF21F00450025E0550035AD89005321A
:1043C0000432062ECFEF21F00750D8B4EAEF21F0E7
:1043D000ECEF21F0F0EF21F0026C031ED8B0032ABD
:1043E00002C002F003C003F01200959495969598D0
:1043F000959A959C959E8C94140E056E7A0EE82ED7
:10440000FED7052EFCD7300EF3EC1CF0070E056E20
:104410007D0EE82EFED7052EFCD700F0300EF3EC13
:104420001CF0210EE82EFED700F0320EF3EC1CF04B
:10443000210EE82EFED700F0210EE82EFED700F068
:104440002B0EF3EC1CF0210EE82EFED700F0080E28
:10445000F3EC1CF0210EE82EFED700F00F0EF3EC6B
:104460001CF0210EE82EFED700F0010EF3EC1CF03C
:10447000210EE82EFED700F0060EF3EC1CF0210E04
:10448000E82EFED700F00F0EF3EC1CF0210EE82E04
:10449000FED700F01200000E02140A6E000E031484
:1044A0000B6E800E04140C6E7F0E05140D6E0A50F8
:1044B0000B100C100D10D8A460EF22F062EF22F068
:1044C0006AEF22F0000E026E000E036E000E046E04
:1044D000000E056E000E06140A6E000E07140B6E19
:1044E000800E08140C6E7F0E09140D6E0A500B100E
:1044F0000C100D10D8A47FEF22F081EF22F089EF8D
:1045000022F0000E066E000E076E000E086E000E02
:10451000096E065002180FE1075003180CE108500D
:10452000041809E109500518D8B499EF22F09BEF5F
:1045300022F09EEF22F0D8909FEF22F0D880120058
:10454000949C948E000E466E000E476E800E486E50
:10455000BF0E496E000E146E000E156E800E166EA4
:10456000410E176E60C002F061C003F062C004F03B
:1045700063C005F0010EDBEC19F002C010F003C0BF
:1045800011F004C012F005C013F07EEC13F010C05F
:104590002DF011C02EF012C02FF013C030F0000E1D
:1045A000296E240E2A6E740E2B6E4A0E2C6E93EC1E
:1045B00015F029C042F02AC043F02BC044F02CC0B3
:1045C00045F01EEC11F042C052F043C053F044C01D
:1045D00054F045C055F017EC1EF05250AF6E240E4B
:1045E000AC6E900EAB6E1200096E0FEF23F006500A
:1045F0007F0F07EC26F02CEF23F00650BF0F07ECDF
:1046000026F02CEF23F00650930F07EC26F02CEF4A
:1046100023F00650D30F07EC26F02CEF23F00950BF
:10462000076E086A0850000AD8B419EF23F02CEF7F
:1046300023F00750010AD8B4F7EF22F0030AD8B4E8
:10464000FDEF22F0010AD8B403EF23F0070AD8B433
:1046500009EF23F02CEF23F0820E076EDE0EE82E1A
:10466000FED7072EFCD78C9412000D6E0AC006F000
:104670000D50F4EC22F08C8452EF23F00BC0F6FFC7
:104680000CC0F7FFF86A070EF76403D00800F55076
:1046900005D0F6CFE1FFF7CFE2FFE75000EC26F0C0
:1046A0000B4A0C2A0BC0F6FF0CC0F7FFF86A070E86
:1046B000F76403D00800F55005D0F6CFE1FFF7CF3F
:1046C000E2FFE7500009D8A468EF23F06AEF23F077
:1046D0003EEF23F01200C6C0CAF0C7C0CBF0000EF8
:1046E0000001EF6F000EEE6F89EF23F0C4C0A4F05D
:1046F000C5C0A5F0CA0EA66F000EA76FC8C0A8F06F
:10470000C9C0A9F004EC0EF00001A451EE27A55198
:10471000EF23CAC0F6FFCBC0F7FF0800F550000931
:10472000D8A495EF23F097EF23F076EF23F0EEC0B7
:10473000C4F0EFC0C5F01200860EF66E4B0EF76E99
:10474000000EF86E01EE58F010EE1EF00900F5CFE5
:10475000EEFFE550E150FAE11C0EF66E4C0EF76EDE
:10476000000EF86E0900F5CFFEF00900F5CFFFF05E
:1047700001EE00F0580EEE6AE806FDE100EEDEF014
:10478000200EEE6AE806FDE15C6A5D905D92000E27
:10479000F86E00012AEF24F0BF0E0A6EFF0E0B6EBA
:1047A00008C00CF009C00DF00A500C260B500D2269
:1047B0000D500AE11A0E0C5CD8A0E1EF23F0E4EFF3
:1047C00023F0010EE5EF23F0000E0E6E0F6A0E507F
:1047D0000F10D8B4EEEF23F0F0EF23F0F7EF23F053
:1047E000200E0810086E0950096EFBEF23F008C078
:1047F00008F009C009F0120004C008F005C009F073
:1048000002C00AF003C00BF00850066E0950076E94
:10481000084A092A06C0F6FF07C0F7FFF86A0AC06F
:10482000D9FF0BC0DAFF0A4A0B2A070EF76403D040
:104830000800F55005D0F6CFE1FFF7CFE2FFE750D3
:10484000DF6EDF50D8A427EF24F029EF24F004EF27
:1048500024F012000B0EC16E030E946E959095928B
:10486000F5EC21F00C0E07EC26F0000E036E020EA4
:10487000026E000E056E040E046EB2EC25F0F28E90
:10488000F28C9E9A9D8A800E0001606F250E616FEA
:10489000000E626F000E636FA0EC22F089EC1DF039
:1048A00044EC0AF050EF24F007EF00F0D00E0001C6
:1048B000D66F000ED76FCCC0D8F0CDC0D9F0000EA7
:1048C000DB6F000EDA6F000EDD6F000EDC6FD80EAE
:1048D000C46F000EC56FCEC0C6F0CFC0C7F0D60EF5
:1048E000C86F000EC96F6BEC23F00001DA51CC25C4
:1048F000D96EDB51CD21DA6E000EDF6E1200010E93
:10490000086E200E02180310D8B489EF24F08BEF44
:1049100024F0A4EF24F0F70E046EFF0E056E02C023
:1049200006F003C007F00450062605500722075082
:1049300009E1050E065CD8A0A0EF24F0A2EF24F058
:10494000A4EF24F0000E086E08C002F0036A120003
:10495000000E561A000E571A000E581A800E591AD9
:1049600052C042F053C043F054C044F055C045F02B
:1049700056C046F057C047F058C048F059C049F0FB
:104980001EEC11F042C052F043C053F044C054F04A
:1049900045C055F01200086E08C004F004460446F5
:1049A000C2500418C30B0418C26EC280C282C2B2C5
:1049B000DCEF24F0DEEF24F0D7EF24F0C350C4CFB7
:1049C00004F0056A04C005F0046A0410066E055080
:1049D000076E06C002F007C003F01200000E116E51
:1049E000000E106EFFEF24F00FC002F0036A0DC03E
:1049F00004F00EC005F073EC20F0104A112A10509C
:104A00000B24D96E11500C20DA6EDF500F6E0F5050
:104A1000D8A40DEF25F00FEF25F0F4EF24F01200ED
:104A200015BE1DEF25F0155006E11404D8B01BEF9C
:104A300025F01DEF25F02BEF25F014C016F015C062
:104A400017F0161E171E164A172A16C014F017C0A4
:104A500015F02FEF25F014C014F015C015F012005A
:104A6000BF0E046EFF0E056E02C006F003C007F015
:104A7000045006260550072207500AE11A0E065C6C
:104A8000D8A045EF25F048EF25F0010E49EF25F0BD
:104A9000000E026E036A120002500310041005108B
:104AA000D8B455EF25F057EF25F05FEF25F0000E55
:104AB000021A000E031A000E041A800E051A02C014
:104AC00002F003C003F004C004F005C005F01200BA
:104AD000D00E046EFF0E056E02C006F003C007F094
:104AE000045006260550072207500AE10A0E065C0C
:104AF000D8A07DEF25F080EF25F0010E81EF25F0A5
:104B0000000E026E036A120002C004F003C005F03A
:104B10008CEF25F0024A032A02C0D9FF03C0DAFF56
:104B2000DF50D8A496EF25F098EF25F08AEF25F016
:104B30000450025C026E05500358036E12000250CE
:104B40000402F3CF06F0F4CF07F002500502F35051
:104B5000072603500402F350072606C002F007C0E0
:104B600003F0120002C006F0064606460646C05094
:104B70000618C70B0618C06EC0500418F80B0418AE
:104B8000C06EC08E12002000000000000000000077
:104B900000000000000000000000200000000000F5
:104BA000000000000C6E0AC006F00C50F4EC22F07D
:104BB0008C840B50F3EC1CF08C941200ABB2E3EF3E
:104BC00025F0E5EF25F0E8EF25F0AB9800F0AB8895
:104BD000AE501200026E02C0ADFF9EA8F2EF25F0AB
:104BE000F4EF25F0EDEF25F01200016E01C0ADFFEE
:104BF0009EA8FDEF25F0FFEF25F0F8EF25F012005D
:104C0000056E8C840550F3EC1CF08C941200056E3C
:104C10008C940550F3EC1CF08C94120001001200EF
:020000040020DA
:08000000FFFFFFFFFFFFFFFF00
:020000040030CA
:0E0000000000191EFF8181FF0FC00FE00F40AE
:00000001FF
